S01D0000726C756F6E3030335F66696E616C70726F6A6563742E73726563E4
S11300004EC0000069C0000067C0000065C0000069
S113001063C0000061C000005FC000005DC000005C
S11300205BC0000059C0000057C0000055C000006C
S113003053C00000DFC000004FC000004DC00000EE
S11300404BC0000049C0000047C0000045C000008C
S113005043C0000041C000003FC000003DC000009C
S11300603BC0000039C0000037C0000035C00000AC
S113007033C0000031C000002FC000002DC00000BC
S11300802BC0000029C0000027C00000A403A8035F
S1130090B903120466040705B704E5035A051124DD
S11300A01FBECFEFD0E4DEBFCDBF11E0A0E0B1E0D2
S11300B0E2E6F0E100E00BBF02C007900D92A43924
S11300C0B107D9F721E0A4E9B1E001C01D92A53B35
S11300D0B207E1F792D6C3C793CF181619065CF09E
S11300E00895000021503109E1F74F5F5F4F8417F5
S11300F0950719F4089540E050E027E033E0F1CF8C
S11301005E9888B95F9A00005F9882E090E0E5CF3E
S1130110089581E0F5CF0895813118F48158F0CF26
S113012008958155EDCF089584E690E0D6DF88E305
S1130130E7DF86E0E5DF8FE0E3DF81E0E1DF8AE00F
S113014090E0CBCF08955E9A88B95F9A00005F98DB
S113015081E090E0C2CF08950F931F93CF93DF9374
S1130160182FEB01D6DF8881882351F001E0010FBD
S1130170812FD2DF8991E7DF102F88818111F6CF9B
S1130180DF91CF911F910F910895609308017093AF
S1130190090180930A0190930B016093A801709365
S11301A0A9018093AA019093AB0108958BE08093F9
S11301B081008DE790E0909389008093880082E02D
S11301C080936F0010928500109284008091080142
S11301D090910901A0910A01B0910B018093A801AB
S11301E09093A901A093AA01B093AB018FB7806843
S11301F08FBF08951F920F920FB60F9211248F9301
S11302009F93AF93BF938091A8019091A901A0916E
S1130210AA01B091AB010197A109B1098093A8018A
S11302209093A901A093AA01B093AB01892B8A2BC7
S11302308B2B99F481E08093AC018091080190911B
S11302400901A0910A01B0910B018093A801909338
S1130250A901A093AA01B093AB01BF91AF919F9163
S11302608F910F900FBE0F901F90189581E08BB95E
S113027085E08BB91BB884E08BB91BB88BB91BB86C
S11302808BB91BB88BB91BB88BB91BB88BB91BB80E
S11302908BB9089591E09BB985E08BB99BB98BB973
S11302A09BB98BB99BB98BB99BB98BB99BB98BB9EA
S11302B09BB98BB99BB98BB91BB884E08BB91BB8BC
S11302C08BB91BB88BB91BB88BB91BB88BB91BB8CE
S11302D08BB91BB88BB91BB88BB908951BB884E0D4
S11302E08BB91BB88BB91BB88BB91BB88BB91BB8AE
S11302F08BB91BB88BB91BB88BB981E08BB985E07E
S11303008BB90895FC0140E050E023E030E071E057
S113031085E094E0E417F50769F42115310529F027
S11303201BB89BB921503109D9F74D5F5F4F20E0CD
S113033030E004C07BB98BB94F5F5F4F4830510543
S113034048F3611102C092DF01C0C8DF82E08BB9BB
S1130350089520E030E090E051E045E074E0821739
S1130360930719F41BB87BB902C05BB94BB92F5F73
S11303703F4F2830310599F780E090E070E024E0A9
S113038041E035E06817790719F44BB93BB902C06D
S11303901BB82BB9019688309105A1F782E08BB97F
S11303A0089583B18095827080939C0193B1909558
S11303B0947090939B012091B0012230E9F028F4CD
S11303C0222349F0213059F037C0243049F1F0F0AC
S11303D0253061F131C081E08093B0010895992303
S11303E009F43FC081113FC082E08093B00129C06D
S11303F083E08093B0012DC0992321F084E08093A1
S1130400B001089581E08093B0010895882321F01C
S113041085E08093B001089581E08093B001089550
S1130420911121C081E08093B001089581111BC016
S113043081E08093B0010895223019F0233049F00F
S1130440089580910701882371F0815080930701FA
S1130450089580910701853031F08F5F8093070103
S113046008958111C5CF089583B1809588708093D4
S11304709A0193B190959071909399012091B20152
S11304802230E9F028F4222349F0213059F037C012
S1130490243049F1F0F0253061F131C081E08093DE
S11304A0B2010895992309F43FC081113FC082E04D
S11304B08093B20129C083E08093B2012DC09923B7
S11304C021F084E08093B201089581E08093B20129
S11304D00895882321F085E08093B201089581E096
S11304E08093B2010895911121C081E08093B201FB
S11304F0089581111BC081E08093B20108952230D8
S113050019F0233049F0089580910601882371F091
S1130510815080930601089580910601853031F061
S11305208F5F8093060108958111C5CF089580914E
S1130530B101813051F028F0823081F08330B9F07C
S11305401AC081E08093B10119C082E08093B101A7
S11305508091060160E090E0D5CE089583E0809319
S1130560B1016091040180910501F3CE089581E009
S11305708093B10103C01092B101089580910701E5
S113058061E090E0BFCE08951092A7011092A601F9
S11305901092A5011092A4011092A30183E080930C
S11305A007018093060194E0909305018093040170
S11305B01092A2011092A10110929F0110929E012B
S11305C01092A001089583B191E0282F217080FD3D
S11305D090E090939D018091AF018230B9F028F4AE
S11305E0882341F0813051F031C08330E9F0843008
S11305F051F12CC082E08093AF0108958091A30152
S1130600882331F182E08093AF01089580919F01A6
S1130610853021F080919E018530D1F41092A301A0
S113062083E08093AF010895211112C084E0809388
S1130630AF0110929F0110929E0181E08093A4016A
S11306401092A30108951092AF0108951092AF0182
S113065008958091B3018230C1F028F4882341F0D9
S1130660813051F030C08330E1F0843049F12BC047
S113067081E08093B30108958091A301882309F454
S113068056C082E08093B30136C080919F018530CB
S113069021F080919E01853071F583E08093B30150
S11306A027C080919D01882319F184E08093B301D0
S11306B010929F0110929E0181E08093A4010895FD
S11306C01092B30108951092B30108958091060128
S11306D0853069F18F5F809306010895019739F59C
S11306E080910601882319F18150809306010895B1
S11306F01092A301089557D4AC019093970180936D
S113070096019C01ABEABAEAF8D3969587959C01C9
S1130710220F331F820F931F9A01281B390BC90123
S11307203093950120939401009781F2D7CF0895D7
S1130730E091B4018E2F90E08930910508F0BEC19C
S1130740FC01EA5BFF4FD0C381E08093B401B9C1DF
S11307508091A301882309F4B4C18091A00181117F
S113076004C082E08093B401B8C187E08093B401EF
S1130770BDC11092A00180910401863011F5209131
S1130780050180910701281304C084E08093B4011B
S1130790DAC130E090E0AC014F5F5F4F24173507BA
S11307A021F487E08093B401A1C102962817390788
S11307B021F483E08093B401AEC188E08093B40156
S11307C0F6C182E08093B40188C181E08093A001E6
S11307D080910401813011F5209105018091060179
S11307E0281304C086E08093B40189C130E090E00E
S11307F0AC014F5F5F4F2417350721F482E08093EB
S1130800B4016BC102962817390721F485E080935F
S1130810B4018DC188E08093B401D2C187E0809394
S1130820B40164C181E08093A00180910501873007
S1130830D1F480910401813009F097C180910601BF
S1130840853009F08CC186E08093B40158C186E0FC
S11308508093B40154C188E08093B401B1C184E0B1
S11308608093B40170C190910401913059F52091A5
S11308700601821304C085E08093B40158C190E05E
S113088030E0AC014F5F5F4F4217530721F486E01D
S11308908093B40134C1A9014F5F5F4F841795075A
S11308A021F485E08093B40142C12E5F3F4F82174B
S11308B0930721F485E08093B40139C188E08093E3
S11308C0B4017EC183E08093B40125C181E08093AB
S11308D0A00180910501811119C08091040181302A
S11308E009F04DC180910601811143C185E08093D7
S11308F0B4011DC185E08093B40119C188E08093DF
S1130900B4015EC183E08093B40105C190910401F8
S1130910913049F520910601821304C086E080934A
S1130920B401EDC090E030E0A9014F5F5F4F841740
S1130930950721F486E08093B401E1C02E5F3F4F18
S11309408217930721F486E08093B401D8C00197FD
S11309502817390721F485E08093B401E8C088E0C2
S11309608093B4012DC184E08093B401ECC0109253
S1130970A00180910501811119C080910401863084
S113098009F007C1809107018111FDC083E08093C4
S1130990B401C1C083E08093B401BDC088E08093FA
S11309A0B40105C185E08093B401C1C090910401F4
S11309B0963049F520910701821304C084E08093A6
S11309C0B401C1C090E030E0A9014F5F5F4F8417CC
S11309D0950721F484E08093B401B5C02E5F3F4FA6
S11309E08217930721F484E08093B401ACC001978B
S11309F02817390721F483E08093B4018CC088E080
S1130A008093B401D4C086E08093B40178C010927E
S1130A10A001809105018730D1F4809104018630D2
S1130A2009F0C1C080910701853009F0B6C084E0A7
S1130A308093B40188C084E08093B40184C088E0CA
S1130A408093B401B4C086E08093B40158C09091FF
S1130A500401963059F520910701821304C083E004
S1130A608093B40158C090E030E0AC014F5F5F4F19
S1130A704217530721F484E08093B40164C0A901B0
S1130A804F5F5F4F8417950721F483E08093B4018F
S1130A9042C02E5F3F4F8217930721F483E0809377
S1130AA0B40139C088E08093B40181C085E08093AB
S1130AB0B4013DC081E08093B40103C01092B4013D
S1130AC00895609104018091050143CC089584E068
S1130AD080930501809304010895609104016F5F80
S1130AE0609304018091050134CC08956091040160
S1130AF0615060930401809105012BCC089580918D
S1130B000501815080930501609104016F5F60933A
S1130B1004011FCC0895809105018F5F8093050126
S1130B206091040161506093040113CC08956091B5
S1130B3004016F5F60930401809105018F5F8093CE
S1130B40050107CC0895809105018150809305012A
S1130B5060910401615060930401FBCB089580917E
S1130B600601843009F077CE72CE813009F077CE59
S1130B7072CE80910601813009F0C0CEBBCE8130A7
S1130B8009F0C0CEBBCE80910701813009F006CFB9
S1130B9001CF863009F006CF01CF80910701843060
S1130BA009F04DCF48CF863009F04DCF48CF81E0D2
S1130BB08093A20180919E018F5F80939E0187CFD5
S1130BC081E08093A20180919F018F5F80939F01B8
S1130BD07ECF83B18095847080939D0193B190956D
S1130BE0987090939C011092A5012091AD01223040
S1130BF0A9F128F4222349F0213059F022C02430ED
S1130C00A1F080F12530B9F01CC081E08093AD01E2
S1130C102DC0882321F084E08093AD0108959923A9
S1130C2029F185E08093AD010895811126C082E009
S1130C308093AD0113C0911120C083E08093AD0176
S1130C4011C01092AD0126CB089563DA6CE071E017
S1130C5081E082DA81E080939801089582E08093B4
S1130C60A501089581E08093A50108951092A10142
S1130C70809198018111EECFE8CF089583B191E07E
S1130C80282F217080FD90E090939D0183B1809581
S1130C90827080939C018091AE01823051F128F4DE
S1130CA0882351F0813069F03EC08430B1F158F1AD
S1130CB0853009F489C037C0EDDA81E08093AE0154
S1130CC099C08091A501813041F48093A3011092D1
S1130CD0980183E08093AE0187C0823009F08AC016
S1130CE081E08093A3011092980182E08093AE0189
S1130CF075C08091A301811171C01092980184E0A4
S1130D008093AE014BC08091A30181116DC01092FC
S1130D10980184E08093AE0141C021113BC085E07D
S1130D208093AE0151C01092AE0108958091980154
S1130D30811112C06CE271E081E00EDA8AE0ECD934
S1130D4080919F01805DFFD98BE1E6D980919E015E
S1130D50805DF9D91092A20181E0809398010895F1
S1130D6080919801811112C067E471E081E0F4D9A7
S1130D708AE0D2D980919F01805DE5D98BE1CCD9FD
S1130D8080919E01805DDFD91092A20181E0809361
S1130D90980108958091980181112EC090919F012E
S1130DA080919E01891740F461E671E081E0D4D915
S1130DB081E08093980108956AE771E081E0CCD9DD
S1130DC081E08093980108951092A50110929801F2
S1130DD081E08093A1019DD95DCA08958091A2010B
S1130DE0882309F4A3CFA6CF8091A201882309F414
S1130DF0B7CFBACF1092A40108958FEF81B912B87A
S1130E0014B885B98AB91BB887B918B8BDDB8CD9B1
S1130E106AE070E080E090E0B8D9C8D91092B001DF
S1130E201092B2011092AE011092B4011092B3016B
S1130E301092B1011092AF011092AD018091A50101
S1130E40811105C0C6DE8091A5018823D9F3C0E0D5
S1130E50D0E08091A1018111D9CF8091A501813089
S1130E60E9F40CDF8091A1018111D0CF9ADAFCDA88
S1130E70AADB8091A6019091A7019C012F5F3F4FAF
S1130E803093A7012093A601803E9E4228F050DCB7
S1130E901092A7011092A6014ADBDBCF8230C9F67B
S1130EA0EDDE8091A1018111B1CF7BDA8091A601A1
S1130EB09091A7019C012F5F3F4F3093A70120938E
S1130EC0A6018031974228F033DC1092A7011092DA
S1130ED0A601C03187E2D80710F4219603C0B9DB1C
S1130EE0C0E0D0E024DBB5CFEE0FFF1F0024001CD0
S1130EF00BBE0790F691E02D0994A29FB001B39F19
S1130F00C001A39F700D811D1124911DB29F700D0E
S1130F10811D1124911D08958F929F92AF92BF92CB
S1130F20CF92DF92EF92FF92CF93DF93EC0168812F
S1130F3079818A819B81611571058105910521F46F
S1130F4064E279ED8BE597E02DE133EF41E050E089
S1130F5038D049015A019B01AC01A7EAB1E44DD054
S1130F606B017C01ACEEB4EFA501940152D0DC011D
S1130F70CB018C0D9D1DAE1DBF1DB7FF03C0019796
S1130F80A109B04888839983AA83BB839F77DF91A3
S1130F90CF91FF90EF90DF90CF90BF90AF909F9054
S1130FA08F900895B9CF80E091E0B6CFA0E0B0E093
S1130FB08093000190930101A0930201B093030177
S1130FC00895052E97FB16F400940FD057FD05D015
S1130FD024D007FC02D046F408C0509540953095C3
S1130FE021953F4F4F4F5F4F089590958095709591
S1130FF061957F4F8F4F9F4F08957FDFA59F900D81
S1131000B49F900DA49F800D911D11240895B7FFE6
S1131010F4CFF3DF821B930B0895A1E21A2EAA1BCF
S1131020BB1BFD010DC0AA1FBB1FEE1FFF1FA21794
S1131030B307E407F50720F0A21BB30BE40BF50B91
S1131040661F771F881F991F1A9469F7609570951A
S1131050809590959B01AC01BD01CF010895F89452
S1051060FFCFBC
S113106201000000030403030100000053696E67DA
S11310726C65506C617965723A2042314D756C74BD
S113108269706C617965723A20423200506C617900
S1131092657220313A2020202020202020506C61CB
S11310A279657220323A00506C6179657220313A66
S11310B220202020202020506C6179657220323A51
S11310C20047616D65204F7665722120506C61790D
S11310D26572312057696E73210047616D65204F37
S11310E27665722120506C61796572322057696E7F
S10710F27321000062
S9030000FC
